{
  "_format": "hh-sol-artifact-1",
  "contractName": "Staking",
  "sourceName": "contracts/Staking.sol",
  "abi": [
    {
      "inputs": [
        {
          "internalType": "address",
          "name": "_addressUSDT",
          "type": "address"
        },
        {
          "internalType": "address",
          "name": "_addressEXM",
          "type": "address"
        }
      ],
      "stateMutability": "nonpayable",
      "type": "constructor"
    },
    {
      "anonymous": false,
      "inputs": [
        {
          "indexed": true,
          "internalType": "address",
          "name": "previousOwner",
          "type": "address"
        },
        {
          "indexed": true,
          "internalType": "address",
          "name": "newOwner",
          "type": "address"
        }
      ],
      "name": "OwnershipTransferred",
      "type": "event"
    },
    {
      "anonymous": false,
      "inputs": [
        {
          "indexed": false,
          "internalType": "address",
          "name": "stakerAddress",
          "type": "address"
        },
        {
          "indexed": false,
          "internalType": "uint256",
          "name": "amount",
          "type": "uint256"
        },
        {
          "indexed": false,
          "internalType": "uint256",
          "name": "stakeTime",
          "type": "uint256"
        }
      ],
      "name": "Stake",
      "type": "event"
    },
    {
      "inputs": [
        {
          "internalType": "address",
          "name": "_tokenAddress",
          "type": "address"
        },
        {
          "internalType": "uint256",
          "name": "_lockDuration",
          "type": "uint256"
        },
        {
          "internalType": "uint256",
          "name": "_rewardDuration",
          "type": "uint256"
        },
        {
          "internalType": "uint256",
          "name": "_minStakeAmount",
          "type": "uint256"
        },
        {
          "internalType": "uint256",
          "name": "_maxStakeAmount",
          "type": "uint256"
        },
        {
          "internalType": "uint256",
          "name": "_maxPoolAmount",
          "type": "uint256"
        },
        {
          "internalType": "uint256",
          "name": "_percent",
          "type": "uint256"
        }
      ],
      "name": "addPool",
      "outputs": [],
      "stateMutability": "nonpayable",
      "type": "function"
    },
    {
      "inputs": [
        {
          "internalType": "uint256",
          "name": "poolId",
          "type": "uint256"
        }
      ],
      "name": "calculateReward",
      "outputs": [
        {
          "internalType": "uint256",
          "name": "",
          "type": "uint256"
        }
      ],
      "stateMutability": "view",
      "type": "function"
    },
    {
      "inputs": [
        {
          "internalType": "address",
          "name": "",
          "type": "address"
        },
        {
          "internalType": "uint256",
          "name": "",
          "type": "uint256"
        }
      ],
      "name": "lastRewardClaimTime",
      "outputs": [
        {
          "internalType": "uint256",
          "name": "",
          "type": "uint256"
        }
      ],
      "stateMutability": "view",
      "type": "function"
    },
    {
      "inputs": [
        {
          "internalType": "address",
          "name": "",
          "type": "address"
        },
        {
          "internalType": "uint256",
          "name": "",
          "type": "uint256"
        }
      ],
      "name": "lastStakeTime",
      "outputs": [
        {
          "internalType": "uint256",
          "name": "",
          "type": "uint256"
        }
      ],
      "stateMutability": "view",
      "type": "function"
    },
    {
      "inputs": [
        {
          "internalType": "address",
          "name": "",
          "type": "address"
        }
      ],
      "name": "lastTimeUpdateReward",
      "outputs": [
        {
          "internalType": "uint256",
          "name": "",
          "type": "uint256"
        }
      ],
      "stateMutability": "view",
      "type": "function"
    },
    {
      "inputs": [],
      "name": "lockDuration",
      "outputs": [
        {
          "internalType": "uint256",
          "name": "",
          "type": "uint256"
        }
      ],
      "stateMutability": "view",
      "type": "function"
    },
    {
      "inputs": [],
      "name": "owner",
      "outputs": [
        {
          "internalType": "address",
          "name": "",
          "type": "address"
        }
      ],
      "stateMutability": "view",
      "type": "function"
    },
    {
      "inputs": [
        {
          "internalType": "uint256",
          "name": "",
          "type": "uint256"
        }
      ],
      "name": "pools",
      "outputs": [
        {
          "internalType": "address",
          "name": "tokenAddress",
          "type": "address"
        },
        {
          "internalType": "uint256",
          "name": "lockDuration",
          "type": "uint256"
        },
        {
          "internalType": "uint256",
          "name": "rewardDuration",
          "type": "uint256"
        },
        {
          "internalType": "uint256",
          "name": "minStakeAmount",
          "type": "uint256"
        },
        {
          "internalType": "uint256",
          "name": "maxStakeAmount",
          "type": "uint256"
        },
        {
          "internalType": "uint256",
          "name": "maxPoolAmount",
          "type": "uint256"
        },
        {
          "internalType": "uint256",
          "name": "percent",
          "type": "uint256"
        }
      ],
      "stateMutability": "view",
      "type": "function"
    },
    {
      "inputs": [],
      "name": "renounceOwnership",
      "outputs": [],
      "stateMutability": "nonpayable",
      "type": "function"
    },
    {
      "inputs": [
        {
          "internalType": "address",
          "name": "",
          "type": "address"
        }
      ],
      "name": "rewardAmount",
      "outputs": [
        {
          "internalType": "uint256",
          "name": "",
          "type": "uint256"
        }
      ],
      "stateMutability": "view",
      "type": "function"
    },
    {
      "inputs": [
        {
          "internalType": "address",
          "name": "",
          "type": "address"
        }
      ],
      "name": "rewardAmount1",
      "outputs": [
        {
          "internalType": "uint256",
          "name": "",
          "type": "uint256"
        }
      ],
      "stateMutability": "view",
      "type": "function"
    },
    {
      "inputs": [
        {
          "internalType": "uint256",
          "name": "poolId",
          "type": "uint256"
        },
        {
          "internalType": "uint256",
          "name": "amount",
          "type": "uint256"
        }
      ],
      "name": "stake",
      "outputs": [],
      "stateMutability": "nonpayable",
      "type": "function"
    },
    {
      "inputs": [
        {
          "internalType": "address",
          "name": "",
          "type": "address"
        }
      ],
      "name": "stakeAmount",
      "outputs": [
        {
          "internalType": "uint256",
          "name": "",
          "type": "uint256"
        }
      ],
      "stateMutability": "view",
      "type": "function"
    },
    {
      "inputs": [
        {
          "internalType": "address",
          "name": "",
          "type": "address"
        }
      ],
      "name": "stakeTime",
      "outputs": [
        {
          "internalType": "uint256",
          "name": "",
          "type": "uint256"
        }
      ],
      "stateMutability": "view",
      "type": "function"
    },
    {
      "inputs": [],
      "name": "totalPools",
      "outputs": [
        {
          "internalType": "uint256",
          "name": "",
          "type": "uint256"
        }
      ],
      "stateMutability": "view",
      "type": "function"
    },
    {
      "inputs": [
        {
          "internalType": "address",
          "name": "newOwner",
          "type": "address"
        }
      ],
      "name": "transferOwnership",
      "outputs": [],
      "stateMutability": "nonpayable",
      "type": "function"
    },
    {
      "inputs": [
        {
          "internalType": "uint256",
          "name": "poolId",
          "type": "uint256"
        }
      ],
      "name": "unstake",
      "outputs": [],
      "stateMutability": "nonpayable",
      "type": "function"
    },
    {
      "inputs": [
        {
          "internalType": "address",
          "name": "",
          "type": "address"
        },
        {
          "internalType": "uint256",
          "name": "",
          "type": "uint256"
        }
      ],
      "name": "unstakeTime",
      "outputs": [
        {
          "internalType": "uint256",
          "name": "",
          "type": "uint256"
        }
      ],
      "stateMutability": "view",
      "type": "function"
    },
    {
      "inputs": [
        {
          "internalType": "uint256",
          "name": "poolId",
          "type": "uint256"
        },
        {
          "internalType": "uint256",
          "name": "newLockDuration",
          "type": "uint256"
        },
        {
          "internalType": "uint256",
          "name": "newRewardDuration",
          "type": "uint256"
        },
        {
          "internalType": "uint256",
          "name": "newMinStakeAmount",
          "type": "uint256"
        },
        {
          "internalType": "uint256",
          "name": "newMaxStakeAmount",
          "type": "uint256"
        },
        {
          "internalType": "uint256",
          "name": "newMaxPoolAmount",
          "type": "uint256"
        },
        {
          "internalType": "uint256",
          "name": "newPercent",
          "type": "uint256"
        }
      ],
      "name": "updatePool",
      "outputs": [],
      "stateMutability": "nonpayable",
      "type": "function"
    },
    {
      "inputs": [
        {
          "internalType": "address",
          "name": "",
          "type": "address"
        },
        {
          "internalType": "uint256",
          "name": "",
          "type": "uint256"
        }
      ],
      "name": "userStakes",
      "outputs": [
        {
          "internalType": "uint256",
          "name": "",
          "type": "uint256"
        }
      ],
      "stateMutability": "view",
      "type": "function"
    },
    {
      "inputs": [
        {
          "internalType": "uint256",
          "name": "poolId",
          "type": "uint256"
        }
      ],
      "name": "withdRaw",
      "outputs": [],
      "stateMutability": "nonpayable",
      "type": "function"
    }
  ],
  "bytecode": "0x60806040526301da9c006001553480156200001957600080fd5b50604051620023c0380380620023c083398181016040528101906200003f91906200031d565b6200005f62000053620000e060201b60201c565b620000e860201b60201c565b6200009b826301e1853e6203f48068056bc75e2d6310000069021e19e0c9bab240000069d3c21bcecceda10000006041620001ac60201b60201c565b620000d8816302d247ce62093a80681b1ae4d6e2ef500000690a968163f0a57b4000006a0422ca8b0a00a425000000604b620001ac60201b60201c565b5050620003ea565b600033905090565b60008060009054906101000a900473ffffffffffffffffffffffffffffffffffffffff169050816000806101000a81548173ffffffffffffffffffffffffffffffffffffffff021916908373ffffffffffffffffffffffffffffffffffffffff1602179055508173ffffffffffffffffffffffffffffffffffffffff168173ffffffffffffffffffffffffffffffffffffffff167f8be0079c531659141344cd1fd0a4f28419497f9722a3daafe3b4186f6b6457e060405160405180910390a35050565b60026000815480929190620001c1906200039d565b91905055506040518060e001604052808873ffffffffffffffffffffffffffffffffffffffff1681526020018781526020018681526020018581526020018481526020018381526020018281525060076000600254815260200190815260200160002060008201518160000160006101000a81548173ffffffffffffffffffffffffffffffffffffffff021916908373ffffffffffffffffffffffffffffffffffffffff1602179055506020820151816001015560408201518160020155606082015181600301556080820151816004015560a0820151816005015560c0820151816006015590505050505050505050565b600080fd5b600073ffffffffffffffffffffffffffffffffffffffff82169050919050565b6000620002e582620002b8565b9050919050565b620002f781620002d8565b81146200030357600080fd5b50565b6000815190506200031781620002ec565b92915050565b60008060408385031215620003375762000336620002b3565b5b6000620003478582860162000306565b92505060206200035a8582860162000306565b9150509250929050565b7f4e487b7100000000000000000000000000000000000000000000000000000000600052601160045260246000fd5b6000819050919050565b6000620003aa8262000393565b91507fffffffffffffffffffffffffffffffffffffffffffffffffffffffffffffffff8203620003df57620003de62000364565b5b600182019050919050565b611fc680620003fa6000396000f3fe608060405234801561001057600080fd5b50600436106101375760003560e01c806382120a52116100b8578063b5d5b5fa1161007c578063b5d5b5fa1461037a578063bf135267146103aa578063cc73c66f146103da578063d2d7231f146103f6578063ecc8671e14610426578063f2fde38b1461044257610137565b806382120a52146102a85780638ac33feb146102d85780638da5cb5b14610308578063ab3c7e5214610326578063ac4afa381461034457610137565b8063678559d1116100ff578063678559d1146101f25780636b777d3614610222578063715018a6146102525780637595a2ac1461025c5780637b0472f01461028c57610137565b8063045544431461013c5780630ac2d4721461015a5780632170e472146101765780632e17de78146101a6578063645a8a56146101c2575b600080fd5b61014461045e565b604051610151919061153d565b60405180910390f35b610174600480360381019061016f9190611589565b610464565b005b610190600480360381019061018b9190611689565b61059b565b60405161019d919061153d565b60405180910390f35b6101c060048036038101906101bb91906116b6565b6105b3565b005b6101dc60048036038101906101d79190611689565b61092f565b6040516101e9919061153d565b60405180910390f35b61020c600480360381019061020791906116e3565b610947565b604051610219919061153d565b60405180910390f35b61023c600480360381019061023791906116e3565b61096c565b604051610249919061153d565b60405180910390f35b61025a610991565b005b61027660048036038101906102719190611689565b6109a5565b604051610283919061153d565b60405180910390f35b6102a660048036038101906102a19190611723565b6109bd565b005b6102c260048036038101906102bd9190611689565b610c69565b6040516102cf919061153d565b60405180910390f35b6102f260048036038101906102ed91906116e3565b610c81565b6040516102ff919061153d565b60405180910390f35b610310610ca6565b60405161031d9190611772565b60405180910390f35b61032e610ccf565b60405161033b919061153d565b60405180910390f35b61035e600480360381019061035991906116b6565b610cd5565b604051610371979695949392919061178d565b60405180910390f35b610394600480360381019061038f91906116e3565b610d37565b6040516103a1919061153d565b60405180910390f35b6103c460048036038101906103bf9190611689565b610d5c565b6040516103d1919061153d565b60405180910390f35b6103f460048036038101906103ef91906117fc565b610d74565b005b610410600480360381019061040b91906116b6565b610e79565b60405161041d919061153d565b60405180910390f35b610440600480360381019061043b91906116b6565b610fda565b005b61045c60048036038101906104579190611689565b6111cc565b005b60015481565b61046c61124f565b6002548711156104b1576040517f08c379a00000000000000000000000000000000000000000000000000000000081526004016104a8906118fb565b60405180910390fd5b6000600760008981526020019081526020016000209050600073ffffffffffffffffffffffffffffffffffffffff168160000160009054906101000a900473ffffffffffffffffffffffffffffffffffffffff1673ffffffffffffffffffffffffffffffffffffffff160361055b576040517f08c379a000000000000000000000000000000000000000000000000000000000815260040161055290611967565b60405180910390fd5b8681600101819055508581600201819055508481600301819055508381600401819055508281600501819055508181600601819055505050505050505050565b60046020528060005260406000206000915090505481565b6002548111156105f8576040517f08c379a00000000000000000000000000000000000000000000000000000000081526004016105ef906118fb565b60405180910390fd5b6000600760008381526020019081526020016000209050600073ffffffffffffffffffffffffffffffffffffffff168160000160009054906101000a900473ffffffffffffffffffffffffffffffffffffffff1673ffffffffffffffffffffffffffffffffffffffff16036106a2576040517f08c379a000000000000000000000000000000000000000000000000000000000815260040161069990611967565b60405180910390fd5b6000600960003373ffffffffffffffffffffffffffffffffffffffff1673ffffffffffffffffffffffffffffffffffffffff16815260200190815260200160002060008481526020019081526020016000205490506000811161073a576040517f08c379a0000000000000000000000000000000000000000000000000000000008152600401610731906119d3565b60405180910390fd5b8160010154600a60003373ffffffffffffffffffffffffffffffffffffffff1673ffffffffffffffffffffffffffffffffffffffff16815260200190815260200160002060008581526020019081526020016000205461079a9190611a22565b4210156107dc576040517f08c379a00000000000000000000000000000000000000000000000000000000081526004016107d390611aa2565b60405180910390fd5b6000600960003373ffffffffffffffffffffffffffffffffffffffff1673ffffffffffffffffffffffffffffffffffffffff1681526020019081526020016000206000858152602001908152602001600020819055508160000160009054906101000a900473ffffffffffffffffffffffffffffffffffffffff1673ffffffffffffffffffffffffffffffffffffffff1663a9059cbb33836040518363ffffffff1660e01b8152600401610891929190611ac2565b6020604051808303816000875af11580156108b0573d6000803e3d6000fd5b505050506040513d601f19601f820116820180604052508101906108d49190611b23565b5042600b60003373ffffffffffffffffffffffffffffffffffffffff1673ffffffffffffffffffffffffffffffffffffffff168152602001908152602001600020600085815260200190815260200160002081905550505050565b60056020528060005260406000206000915090505481565b600b602052816000526040600020602052806000526040600020600091509150505481565b600a602052816000526040600020602052806000526040600020600091509150505481565b61099961124f565b6109a360006112cd565b565b60086020528060005260406000206000915090505481565b600254821115610a02576040517f08c379a00000000000000000000000000000000000000000000000000000000081526004016109f9906118fb565b60405180910390fd5b6000600760008481526020019081526020016000209050600073ffffffffffffffffffffffffffffffffffffffff168160000160009054906101000a900473ffffffffffffffffffffffffffffffffffffffff1673ffffffffffffffffffffffffffffffffffffffff1603610aac576040517f08c379a0000000000000000000000000000000000000000000000000000000008152600401610aa390611967565b60405180910390fd5b80600301548210158015610ac4575080600401548211155b610b03576040517f08c379a0000000000000000000000000000000000000000000000000000000008152600401610afa90611b9c565b60405180910390fd5b8060000160009054906101000a900473ffffffffffffffffffffffffffffffffffffffff1673ffffffffffffffffffffffffffffffffffffffff166323b872dd3330856040518463ffffffff1660e01b8152600401610b6493929190611bbc565b6020604051808303816000875af1158015610b83573d6000803e3d6000fd5b505050506040513d601f19601f82011682018060405250810190610ba79190611b23565b5081600960003373ffffffffffffffffffffffffffffffffffffffff1673ffffffffffffffffffffffffffffffffffffffff16815260200190815260200160002060008581526020019081526020016000206000828254610c089190611a22565b9250508190555042600a60003373ffffffffffffffffffffffffffffffffffffffff1673ffffffffffffffffffffffffffffffffffffffff168152602001908152602001600020600085815260200190815260200160002081905550505050565b60066020528060005260406000206000915090505481565b600c602052816000526040600020602052806000526040600020600091509150505481565b60008060009054906101000a900473ffffffffffffffffffffffffffffffffffffffff16905090565b60025481565b60076020528060005260406000206000915090508060000160009054906101000a900473ffffffffffffffffffffffffffffffffffffffff16908060010154908060020154908060030154908060040154908060050154908060060154905087565b6009602052816000526040600020602052806000526040600020600091509150505481565b60036020528060005260406000206000915090505481565b60026000815480929190610d8790611bf3565b91905055506040518060e001604052808873ffffffffffffffffffffffffffffffffffffffff1681526020018781526020018681526020018581526020018481526020018381526020018281525060076000600254815260200190815260200160002060008201518160000160006101000a81548173ffffffffffffffffffffffffffffffffffffffff021916908373ffffffffffffffffffffffffffffffffffffffff1602179055506020820151816001015560408201518160020155606082015181600301556080820151816004015560a0820151816005015560c0820151816006015590505050505050505050565b6000806007600084815260200190815260200160002090506000600a60003373ffffffffffffffffffffffffffffffffffffffff1673ffffffffffffffffffffffffffffffffffffffff16815260200190815260200160002060008581526020019081526020016000205442610eef9190611c3b565b9050610f50818360060154600960003373ffffffffffffffffffffffffffffffffffffffff1673ffffffffffffffffffffffffffffffffffffffff168152602001908152602001600020600088815260200190815260200160002054611391565b6000640758f07a30600960003373ffffffffffffffffffffffffffffffffffffffff1673ffffffffffffffffffffffffffffffffffffffff168152602001908152602001600020600087815260200190815260200160002054846006015484610fb99190611c6f565b610fc39190611c6f565b610fcd9190611ce0565b9050809350505050919050565b60025481111561101f576040517f08c379a0000000000000000000000000000000000000000000000000000000008152600401611016906118fb565b60405180910390fd5b60006007600083815260200190815260200160002090508060020154600a60003373ffffffffffffffffffffffffffffffffffffffff1673ffffffffffffffffffffffffffffffffffffffff1681526020019081526020016000206000848152602001908152602001600020546110969190611a22565b4210156110d8576040517f08c379a00000000000000000000000000000000000000000000000000000000081526004016110cf90611d5d565b60405180910390fd5b60006110e383610e79565b90508160000160009054906101000a900473ffffffffffffffffffffffffffffffffffffffff1673ffffffffffffffffffffffffffffffffffffffff1663a9059cbb33836040518363ffffffff1660e01b8152600401611144929190611ac2565b6020604051808303816000875af1158015611163573d6000803e3d6000fd5b505050506040513d601f19601f820116820180604052508101906111879190611b23565b506111c76040518060400160405280600381526020017f616161000000000000000000000000000000000000000000000000000000000081525082611430565b505050565b6111d461124f565b600073ffffffffffffffffffffffffffffffffffffffff168173ffffffffffffffffffffffffffffffffffffffff1603611243576040517f08c379a000000000000000000000000000000000000000000000000000000000815260040161123a90611def565b60405180910390fd5b61124c816112cd565b50565b6112576114cc565b73ffffffffffffffffffffffffffffffffffffffff16611275610ca6565b73ffffffffffffffffffffffffffffffffffffffff16146112cb576040517f08c379a00000000000000000000000000000000000000000000000000000000081526004016112c290611e5b565b60405180910390fd5b565b60008060009054906101000a900473ffffffffffffffffffffffffffffffffffffffff169050816000806101000a81548173ffffffffffffffffffffffffffffffffffffffff021916908373ffffffffffffffffffffffffffffffffffffffff1602179055508173ffffffffffffffffffffffffffffffffffffffff168173ffffffffffffffffffffffffffffffffffffffff167f8be0079c531659141344cd1fd0a4f28419497f9722a3daafe3b4186f6b6457e060405160405180910390a35050565b61142b8383836040516024016113a993929190611e7b565b6040516020818303038152906040527fd1ed7a3c000000000000000000000000000000000000000000000000000000007bffffffffffffffffffffffffffffffffffffffffffffffffffffffff19166020820180517bffffffffffffffffffffffffffffffffffffffffffffffffffffffff83818316178352505050506114d4565b505050565b6114c88282604051602401611446929190611f31565b6040516020818303038152906040527fb60e72cc000000000000000000000000000000000000000000000000000000007bffffffffffffffffffffffffffffffffffffffffffffffffffffffff19166020820180517bffffffffffffffffffffffffffffffffffffffffffffffffffffffff83818316178352505050506114d4565b5050565b600033905090565b6114eb816114e36114ee61150f565b63ffffffff16565b50565b60006a636f6e736f6c652e6c6f679050600080835160208501845afa505050565b61151a819050919050565b611522611f61565b565b6000819050919050565b61153781611524565b82525050565b6000602082019050611552600083018461152e565b92915050565b600080fd5b61156681611524565b811461157157600080fd5b50565b6000813590506115838161155d565b92915050565b600080600080600080600060e0888a0312156115a8576115a7611558565b5b60006115b68a828b01611574565b97505060206115c78a828b01611574565b96505060406115d88a828b01611574565b95505060606115e98a828b01611574565b94505060806115fa8a828b01611574565b93505060a061160b8a828b01611574565b92505060c061161c8a828b01611574565b91505092959891949750929550565b600073ffffffffffffffffffffffffffffffffffffffff82169050919050565b60006116568261162b565b9050919050565b6116668161164b565b811461167157600080fd5b50565b6000813590506116838161165d565b92915050565b60006020828403121561169f5761169e611558565b5b60006116ad84828501611674565b91505092915050565b6000602082840312156116cc576116cb611558565b5b60006116da84828501611574565b91505092915050565b600080604083850312156116fa576116f9611558565b5b600061170885828601611674565b925050602061171985828601611574565b9150509250929050565b6000806040838503121561173a57611739611558565b5b600061174885828601611574565b925050602061175985828601611574565b9150509250929050565b61176c8161164b565b82525050565b60006020820190506117876000830184611763565b92915050565b600060e0820190506117a2600083018a611763565b6117af602083018961152e565b6117bc604083018861152e565b6117c9606083018761152e565b6117d6608083018661152e565b6117e360a083018561152e565b6117f060c083018461152e565b98975050505050505050565b600080600080600080600060e0888a03121561181b5761181a611558565b5b60006118298a828b01611674565b975050602061183a8a828b01611574565b965050604061184b8a828b01611574565b955050606061185c8a828b01611574565b945050608061186d8a828b01611574565b93505060a061187e8a828b01611574565b92505060c061188f8a828b01611574565b91505092959891949750929550565b600082825260208201905092915050565b7f496e76616c696420706f6f6c2049440000000000000000000000000000000000600082015250565b60006118e5600f8361189e565b91506118f0826118af565b602082019050919050565b60006020820190508181036000830152611914816118d8565b9050919050565b7f496e76616c696420706f6f6c0000000000000000000000000000000000000000600082015250565b6000611951600c8361189e565b915061195c8261191b565b602082019050919050565b6000602082019050818103600083015261198081611944565b9050919050565b7f4e6f207374616b6520746f207769746864726177000000000000000000000000600082015250565b60006119bd60148361189e565b91506119c882611987565b602082019050919050565b600060208201905081810360008301526119ec816119b0565b9050919050565b7f4e487b7100000000000000000000000000000000000000000000000000000000600052601160045260246000fd5b6000611a2d82611524565b9150611a3883611524565b9250828201905080821115611a5057611a4f6119f3565b5b92915050565b7f5374616b65206973207374696c6c206c6f636b65640000000000000000000000600082015250565b6000611a8c60158361189e565b9150611a9782611a56565b602082019050919050565b60006020820190508181036000830152611abb81611a7f565b9050919050565b6000604082019050611ad76000830185611763565b611ae4602083018461152e565b9392505050565b60008115159050919050565b611b0081611aeb565b8114611b0b57600080fd5b50565b600081519050611b1d81611af7565b92915050565b600060208284031215611b3957611b38611558565b5b6000611b4784828501611b0e565b91505092915050565b7f496e76616c696420616d6f756e74000000000000000000000000000000000000600082015250565b6000611b86600e8361189e565b9150611b9182611b50565b602082019050919050565b60006020820190508181036000830152611bb581611b79565b9050919050565b6000606082019050611bd16000830186611763565b611bde6020830185611763565b611beb604083018461152e565b949350505050565b6000611bfe82611524565b91507fffffffffffffffffffffffffffffffffffffffffffffffffffffffffffffffff8203611c3057611c2f6119f3565b5b600182019050919050565b6000611c4682611524565b9150611c5183611524565b9250828203905081811115611c6957611c686119f3565b5b92915050565b6000611c7a82611524565b9150611c8583611524565b9250828202611c9381611524565b91508282048414831517611caa57611ca96119f3565b5b5092915050565b7f4e487b7100000000000000000000000000000000000000000000000000000000600052601260045260246000fd5b6000611ceb82611524565b9150611cf683611524565b925082611d0657611d05611cb1565b5b828204905092915050565b7f526577617264206973207374696c6c206c6f636b656400000000000000000000600082015250565b6000611d4760168361189e565b9150611d5282611d11565b602082019050919050565b60006020820190508181036000830152611d7681611d3a565b9050919050565b7f4f776e61626c653a206e6577206f776e657220697320746865207a65726f206160008201527f6464726573730000000000000000000000000000000000000000000000000000602082015250565b6000611dd960268361189e565b9150611de482611d7d565b604082019050919050565b60006020820190508181036000830152611e0881611dcc565b9050919050565b7f4f776e61626c653a2063616c6c6572206973206e6f7420746865206f776e6572600082015250565b6000611e4560208361189e565b9150611e5082611e0f565b602082019050919050565b60006020820190508181036000830152611e7481611e38565b9050919050565b6000606082019050611e90600083018661152e565b611e9d602083018561152e565b611eaa604083018461152e565b949350505050565b600081519050919050565b60005b83811015611edb578082015181840152602081019050611ec0565b60008484015250505050565b6000601f19601f8301169050919050565b6000611f0382611eb2565b611f0d818561189e565b9350611f1d818560208601611ebd565b611f2681611ee7565b840191505092915050565b60006040820190508181036000830152611f4b8185611ef8565b9050611f5a602083018461152e565b9392505050565b7f4e487b7100000000000000000000000000000000000000000000000000000000600052605160045260246000fdfea264697066735822122033453241a5a0a8398e3c47b674bcb4df5320b07d1e0734543a9b64d1b86fdd2764736f6c63430008130033",
  "linkReferences": {},
  "deployedLinkReferences": {}
}