{
  "_format": "hh-sol-artifact-1",
  "contractName": "Staking",
  "sourceName": "contracts/Staking.sol",
  "abi": [
    {
      "anonymous": false,
      "inputs": [
        {
          "indexed": true,
          "internalType": "address",
          "name": "previousOwner",
          "type": "address"
        },
        {
          "indexed": true,
          "internalType": "address",
          "name": "newOwner",
          "type": "address"
        }
      ],
      "name": "OwnershipTransferred",
      "type": "event"
    },
    {
      "anonymous": false,
      "inputs": [
        {
          "indexed": false,
          "internalType": "address",
          "name": "StakeAddress",
          "type": "address"
        },
        {
          "indexed": false,
          "internalType": "uint256",
          "name": "Amount",
          "type": "uint256"
        },
        {
          "indexed": false,
          "internalType": "uint256",
          "name": "PoolId",
          "type": "uint256"
        }
      ],
      "name": "Stake",
      "type": "event"
    },
    {
      "anonymous": false,
      "inputs": [
        {
          "indexed": false,
          "internalType": "address",
          "name": "UnStakeAddress",
          "type": "address"
        },
        {
          "indexed": false,
          "internalType": "uint256",
          "name": "Amount",
          "type": "uint256"
        },
        {
          "indexed": false,
          "internalType": "uint256",
          "name": "PoolId",
          "type": "uint256"
        }
      ],
      "name": "UnStake",
      "type": "event"
    },
    {
      "anonymous": false,
      "inputs": [
        {
          "indexed": false,
          "internalType": "address",
          "name": "WithdrawReward",
          "type": "address"
        },
        {
          "indexed": false,
          "internalType": "uint256",
          "name": "Reward",
          "type": "uint256"
        },
        {
          "indexed": false,
          "internalType": "uint256",
          "name": "PoolId",
          "type": "uint256"
        }
      ],
      "name": "WithdrawReward",
      "type": "event"
    },
    {
      "inputs": [
        {
          "internalType": "address",
          "name": "_tokenAddress",
          "type": "address"
        },
        {
          "internalType": "uint256",
          "name": "_lockDuration",
          "type": "uint256"
        },
        {
          "internalType": "uint256",
          "name": "_rewardDuration",
          "type": "uint256"
        },
        {
          "internalType": "uint256",
          "name": "_minStakeAmount",
          "type": "uint256"
        },
        {
          "internalType": "uint256",
          "name": "_maxStakeAmount",
          "type": "uint256"
        },
        {
          "internalType": "uint256",
          "name": "_maxPoolAmount",
          "type": "uint256"
        },
        {
          "internalType": "uint256",
          "name": "_percent",
          "type": "uint256"
        }
      ],
      "name": "addPool",
      "outputs": [],
      "stateMutability": "nonpayable",
      "type": "function"
    },
    {
      "inputs": [
        {
          "internalType": "uint256",
          "name": "",
          "type": "uint256"
        }
      ],
      "name": "amountMaxPool",
      "outputs": [
        {
          "internalType": "uint256",
          "name": "",
          "type": "uint256"
        }
      ],
      "stateMutability": "view",
      "type": "function"
    },
    {
      "inputs": [
        {
          "internalType": "address",
          "name": "",
          "type": "address"
        }
      ],
      "name": "balance",
      "outputs": [
        {
          "internalType": "uint256",
          "name": "",
          "type": "uint256"
        }
      ],
      "stateMutability": "view",
      "type": "function"
    },
    {
      "inputs": [
        {
          "internalType": "address",
          "name": "_address",
          "type": "address"
        },
        {
          "internalType": "uint256",
          "name": "poolId",
          "type": "uint256"
        }
      ],
      "name": "calculateReward",
      "outputs": [
        {
          "internalType": "uint256",
          "name": "",
          "type": "uint256"
        }
      ],
      "stateMutability": "view",
      "type": "function"
    },
    {
      "inputs": [
        {
          "internalType": "uint256",
          "name": "poolId",
          "type": "uint256"
        }
      ],
      "name": "claimReward",
      "outputs": [],
      "stateMutability": "nonpayable",
      "type": "function"
    },
    {
      "inputs": [
        {
          "internalType": "uint256",
          "name": "poolId",
          "type": "uint256"
        }
      ],
      "name": "getRound",
      "outputs": [
        {
          "internalType": "address",
          "name": "tokenAddress",
          "type": "address"
        },
        {
          "internalType": "uint256",
          "name": "lockDuration",
          "type": "uint256"
        },
        {
          "internalType": "uint256",
          "name": "rewardDuration",
          "type": "uint256"
        },
        {
          "internalType": "uint256",
          "name": "minStakeAmount",
          "type": "uint256"
        },
        {
          "internalType": "uint256",
          "name": "maxStakeAmount",
          "type": "uint256"
        },
        {
          "internalType": "uint256",
          "name": "maxPoolAmount",
          "type": "uint256"
        },
        {
          "internalType": "uint256",
          "name": "percent",
          "type": "uint256"
        }
      ],
      "stateMutability": "view",
      "type": "function"
    },
    {
      "inputs": [],
      "name": "getTimePresent",
      "outputs": [
        {
          "internalType": "uint256",
          "name": "",
          "type": "uint256"
        }
      ],
      "stateMutability": "view",
      "type": "function"
    },
    {
      "inputs": [],
      "name": "owner",
      "outputs": [
        {
          "internalType": "address",
          "name": "",
          "type": "address"
        }
      ],
      "stateMutability": "view",
      "type": "function"
    },
    {
      "inputs": [
        {
          "internalType": "uint256",
          "name": "",
          "type": "uint256"
        }
      ],
      "name": "pools",
      "outputs": [
        {
          "internalType": "address",
          "name": "tokenAddress",
          "type": "address"
        },
        {
          "internalType": "uint256",
          "name": "lockDuration",
          "type": "uint256"
        },
        {
          "internalType": "uint256",
          "name": "rewardDuration",
          "type": "uint256"
        },
        {
          "internalType": "uint256",
          "name": "minStakeAmount",
          "type": "uint256"
        },
        {
          "internalType": "uint256",
          "name": "maxStakeAmount",
          "type": "uint256"
        },
        {
          "internalType": "uint256",
          "name": "maxPoolAmount",
          "type": "uint256"
        },
        {
          "internalType": "uint256",
          "name": "percent",
          "type": "uint256"
        }
      ],
      "stateMutability": "view",
      "type": "function"
    },
    {
      "inputs": [],
      "name": "renounceOwnership",
      "outputs": [],
      "stateMutability": "nonpayable",
      "type": "function"
    },
    {
      "inputs": [
        {
          "internalType": "uint256",
          "name": "poolId",
          "type": "uint256"
        },
        {
          "internalType": "uint256",
          "name": "amount",
          "type": "uint256"
        }
      ],
      "name": "stake",
      "outputs": [],
      "stateMutability": "nonpayable",
      "type": "function"
    },
    {
      "inputs": [],
      "name": "totalPools",
      "outputs": [
        {
          "internalType": "uint256",
          "name": "",
          "type": "uint256"
        }
      ],
      "stateMutability": "view",
      "type": "function"
    },
    {
      "inputs": [
        {
          "internalType": "address",
          "name": "newOwner",
          "type": "address"
        }
      ],
      "name": "transferOwnership",
      "outputs": [],
      "stateMutability": "nonpayable",
      "type": "function"
    },
    {
      "inputs": [
        {
          "internalType": "uint256",
          "name": "poolId",
          "type": "uint256"
        }
      ],
      "name": "unStake",
      "outputs": [],
      "stateMutability": "nonpayable",
      "type": "function"
    },
    {
      "inputs": [
        {
          "internalType": "uint256",
          "name": "poolId",
          "type": "uint256"
        },
        {
          "internalType": "address",
          "name": "_tokenAddress",
          "type": "address"
        },
        {
          "internalType": "uint256",
          "name": "_lockDuration",
          "type": "uint256"
        },
        {
          "internalType": "uint256",
          "name": "_rewardDuration",
          "type": "uint256"
        },
        {
          "internalType": "uint256",
          "name": "_minStakeAmount",
          "type": "uint256"
        },
        {
          "internalType": "uint256",
          "name": "_maxStakeAmount",
          "type": "uint256"
        },
        {
          "internalType": "uint256",
          "name": "_maxPoolAmount",
          "type": "uint256"
        },
        {
          "internalType": "uint256",
          "name": "_percent",
          "type": "uint256"
        }
      ],
      "name": "updatePool",
      "outputs": [],
      "stateMutability": "nonpayable",
      "type": "function"
    },
    {
      "inputs": [
        {
          "internalType": "address",
          "name": "",
          "type": "address"
        },
        {
          "internalType": "uint256",
          "name": "",
          "type": "uint256"
        }
      ],
      "name": "userStakes",
      "outputs": [
        {
          "internalType": "uint256",
          "name": "amountStaked",
          "type": "uint256"
        },
        {
          "internalType": "uint256",
          "name": "lastStakeTime",
          "type": "uint256"
        },
        {
          "internalType": "uint256",
          "name": "rewardEarned",
          "type": "uint256"
        },
        {
          "internalType": "uint256",
          "name": "lastRewardUpdateTime",
          "type": "uint256"
        },
        {
          "internalType": "uint256",
          "name": "lastRewardWithdrawTime",
          "type": "uint256"
        }
      ],
      "stateMutability": "view",
      "type": "function"
    }
  ],
  "bytecode": "0x60806040523480156200001157600080fd5b5062000032620000266200003860201b60201c565b6200004060201b60201c565b62000104565b600033905090565b60008060009054906101000a900473ffffffffffffffffffffffffffffffffffffffff169050816000806101000a81548173ffffffffffffffffffffffffffffffffffffffff021916908373ffffffffffffffffffffffffffffffffffffffff1602179055508173ffffffffffffffffffffffffffffffffffffffff168173ffffffffffffffffffffffffffffffffffffffff167f8be0079c531659141344cd1fd0a4f28419497f9722a3daafe3b4186f6b6457e060405160405180910390a35050565b6125d280620001146000396000f3fe608060405234801561001057600080fd5b50600436106101005760003560e01c806394d126c511610097578063b5d5b5fa11610066578063b5d5b5fa146102a5578063cc73c66f146102d9578063e3d670d7146102f5578063f2fde38b1461032557610100565b806394d126c514610205578063ab3c7e5214610235578063ac4afa3814610253578063ae169a501461028957610100565b80637b0472f0116100d35780637b0472f0146101775780638c412b69146101935780638da5cb5b146101b15780638f1327c0146101cf57610100565b80631852e8d914610105578063207f037e146101355780635d3eea9114610151578063715018a61461016d575b600080fd5b61011f600480360381019061011a91906116b7565b610341565b60405161012c9190611706565b60405180910390f35b61014f600480360381019061014a9190611721565b6103f5565b005b61016b600480360381019061016691906117d7565b61054c565b005b61017561070a565b005b610191600480360381019061018c9190611804565b61071e565b005b61019b610990565b6040516101a89190611706565b60405180910390f35b6101b9610998565b6040516101c69190611853565b60405180910390f35b6101e960048036038101906101e491906117d7565b6109c1565b6040516101fc979695949392919061186e565b60405180910390f35b61021f600480360381019061021a91906117d7565b610b0d565b60405161022c9190611706565b60405180910390f35b61023d610b25565b60405161024a9190611706565b60405180910390f35b61026d600480360381019061026891906117d7565b610b2b565b604051610280979695949392919061186e565b60405180910390f35b6102a3600480360381019061029e91906117d7565b610b8d565b005b6102bf60048036038101906102ba91906116b7565b610e52565b6040516102d09594939291906118dd565b60405180910390f35b6102f360048036038101906102ee9190611930565b610e95565b005b61030f600480360381019061030a91906119d2565b611009565b60405161031c9190611706565b60405180910390f35b61033f600480360381019061033a91906119d2565b611021565b005b600080600360008573ffffffffffffffffffffffffffffffffffffffff1673ffffffffffffffffffffffffffffffffffffffff1681526020019081526020016000206000848152602001908152602001600020905060008160030154426103a89190611a2e565b9050640758f07a3082600001546002600087815260200190815260200160002060060154836103d79190611a62565b6103e19190611a62565b6103eb9190611ad3565b9250505092915050565b6103fd6110a4565b600154881115610442576040517f08c379a000000000000000000000000000000000000000000000000000000000815260040161043990611b61565b60405180910390fd5b600073ffffffffffffffffffffffffffffffffffffffff168773ffffffffffffffffffffffffffffffffffffffff16036104b1576040517f08c379a00000000000000000000000000000000000000000000000000000000081526004016104a890611bcd565b60405180910390fd5b6000600260008a81526020019081526020016000209050878160000160006101000a81548173ffffffffffffffffffffffffffffffffffffffff021916908373ffffffffffffffffffffffffffffffffffffffff160217905550868160010181905550858160020181905550848160030181905550838160040181905550828160050181905550818160060181905550505050505050505050565b600154811115610591576040517f08c379a000000000000000000000000000000000000000000000000000000000815260040161058890611b61565b60405180910390fd5b60003390506000600360008373ffffffffffffffffffffffffffffffffffffffff1673ffffffffffffffffffffffffffffffffffffffff168152602001908152602001600020600084815260200190815260200160002090506105f48383611122565b6002600084815260200190815260200160002060010154816001015461061a9190611bed565b42101561065c576040517f08c379a000000000000000000000000000000000000000000000000000000000815260040161065390611c6d565b60405180910390fd5b6000816002015482600001546106729190611bed565b905060008260020181905550600082600001819055506106c96002600086815260200190815260200160002060000160009054906101000a900473ffffffffffffffffffffffffffffffffffffffff1684836111ae565b7f54a9763035584fc4fcad1bc4e0e7a83f93e016f50ae32bd527530a77257393ee8382866040516106fc93929190611c8d565b60405180910390a150505050565b6107126110a4565b61071c6000611234565b565b6000339050600154831115610768576040517f08c379a000000000000000000000000000000000000000000000000000000000815260040161075f90611b61565b60405180910390fd5b60006002600085815260200190815260200160002090506000600360008473ffffffffffffffffffffffffffffffffffffffff1673ffffffffffffffffffffffffffffffffffffffff16815260200190815260200160002060008681526020019081526020016000209050816003015484101561081a576040517f08c379a000000000000000000000000000000000000000000000000000000000815260040161081190611d36565b60405180910390fd5b8160040154841115610861576040517f08c379a000000000000000000000000000000000000000000000000000000000815260040161085890611dc8565b60405180910390fd5b81600501546004600087815260200190815260200160002054856108859190611bed565b11156108c6576040517f08c379a00000000000000000000000000000000000000000000000000000000081526004016108bd90611e34565b60405180910390fd5b6108d08584611122565b838160000160008282546108e49190611bed565b925050819055508360046000878152602001908152602001600020600082825461090e9190611bed565b9250508190555042816001018190555061094e8260000160009054906101000a900473ffffffffffffffffffffffffffffffffffffffff168430876112f8565b7f5af417134f72a9d41143ace85b0a26dce6f550f894f2cbc1eeee8810603d91b683868660405161098193929190611c8d565b60405180910390a15050505050565b600042905090565b60008060009054906101000a900473ffffffffffffffffffffffffffffffffffffffff16905090565b600080600080600080600080881180156109dd57506001548811155b610a1c576040517f08c379a0000000000000000000000000000000000000000000000000000000008152600401610a1390611ea0565b60405180910390fd5b6000600260008a81526020019081526020016000206040518060e00160405290816000820160009054906101000a900473ffffffffffffffffffffffffffffffffffffffff1673ffffffffffffffffffffffffffffffffffffffff1673ffffffffffffffffffffffffffffffffffffffff16815260200160018201548152602001600282015481526020016003820154815260200160048201548152602001600582015481526020016006820154815250509050806000015181602001518260400151836060015184608001518560a001518660c00151975097509750975097509750975050919395979092949650565b60046020528060005260406000206000915090505481565b60015481565b60026020528060005260406000206000915090508060000160009054906101000a900473ffffffffffffffffffffffffffffffffffffffff16908060010154908060020154908060030154908060040154908060050154908060060154905087565b60003390506000600360008373ffffffffffffffffffffffffffffffffffffffff1673ffffffffffffffffffffffffffffffffffffffff16815260200190815260200160002060008481526020019081526020016000209050610bf08383611122565b6000816000015411610c37576040517f08c379a0000000000000000000000000000000000000000000000000000000008152600401610c2e90611f0c565b60405180910390fd5b6000816002015411610c7e576040517f08c379a0000000000000000000000000000000000000000000000000000000008152600401610c7590611f9e565b60405180910390fd5b6000816002015490506000826004015403610d545760026000858152602001908152602001600020600201548260010154610cb99190611bed565b421015610cfb576040517f08c379a0000000000000000000000000000000000000000000000000000000008152600401610cf29061200a565b60405180910390fd5b60008260020181905550610d466002600086815260200190815260200160002060000160009054906101000a900473ffffffffffffffffffffffffffffffffffffffff1684836111ae565b428260040181905550610e11565b60026000858152602001908152602001600020600201548260040154610d7a9190611bed565b421015610dbc576040517f08c379a0000000000000000000000000000000000000000000000000000000008152600401610db390612076565b60405180910390fd5b60008260020181905550610e076002600086815260200190815260200160002060000160009054906101000a900473ffffffffffffffffffffffffffffffffffffffff1684836111ae565b4282600401819055505b7f48f1e4b8fb0469595617480e6784e40ab6b8c49209761b8e09305bf7b73e53de838286604051610e4493929190611c8d565b60405180910390a150505050565b6003602052816000526040600020602052806000526040600020600091509150508060000154908060010154908060020154908060030154908060040154905085565b600073ffffffffffffffffffffffffffffffffffffffff168773ffffffffffffffffffffffffffffffffffffffff1603610f04576040517f08c379a0000000000000000000000000000000000000000000000000000000008152600401610efb906120e2565b60405180910390fd5b60016000815480929190610f1790612102565b91905055506040518060e001604052808873ffffffffffffffffffffffffffffffffffffffff1681526020018781526020018681526020018581526020018481526020018381526020018281525060026000600154815260200190815260200160002060008201518160000160006101000a81548173ffffffffffffffffffffffffffffffffffffffff021916908373ffffffffffffffffffffffffffffffffffffffff1602179055506020820151816001015560408201518160020155606082015181600301556080820151816004015560a0820151816005015560c0820151816006015590505050505050505050565b60056020528060005260406000206000915090505481565b6110296110a4565b600073ffffffffffffffffffffffffffffffffffffffff168173ffffffffffffffffffffffffffffffffffffffff1603611098576040517f08c379a000000000000000000000000000000000000000000000000000000000815260040161108f906121bc565b60405180910390fd5b6110a181611234565b50565b6110ac611381565b73ffffffffffffffffffffffffffffffffffffffff166110ca610998565b73ffffffffffffffffffffffffffffffffffffffff1614611120576040517f08c379a000000000000000000000000000000000000000000000000000000000815260040161111790612228565b60405180910390fd5b565b6000600360008373ffffffffffffffffffffffffffffffffffffffff1673ffffffffffffffffffffffffffffffffffffffff1681526020019081526020016000206000848152602001908152602001600020905060006111823385610341565b9050808260020160008282546111989190611bed565b9250508190555042826003018190555050505050565b61122f8363a9059cbb60e01b84846040516024016111cd929190612248565b604051602081830303815290604052907bffffffffffffffffffffffffffffffffffffffffffffffffffffffff19166020820180517bffffffffffffffffffffffffffffffffffffffffffffffffffffffff8381831617835250505050611389565b505050565b60008060009054906101000a900473ffffffffffffffffffffffffffffffffffffffff169050816000806101000a81548173ffffffffffffffffffffffffffffffffffffffff021916908373ffffffffffffffffffffffffffffffffffffffff1602179055508173ffffffffffffffffffffffffffffffffffffffff168173ffffffffffffffffffffffffffffffffffffffff167f8be0079c531659141344cd1fd0a4f28419497f9722a3daafe3b4186f6b6457e060405160405180910390a35050565b61137b846323b872dd60e01b85858560405160240161131993929190612271565b604051602081830303815290604052907bffffffffffffffffffffffffffffffffffffffffffffffffffffffff19166020820180517bffffffffffffffffffffffffffffffffffffffffffffffffffffffff8381831617835250505050611389565b50505050565b600033905090565b60006113eb826040518060400160405280602081526020017f5361666545524332303a206c6f772d6c6576656c2063616c6c206661696c65648152508573ffffffffffffffffffffffffffffffffffffffff166114519092919063ffffffff16565b905060008151148061140d57508080602001905181019061140c91906122e0565b5b61144c576040517f08c379a00000000000000000000000000000000000000000000000000000000081526004016114439061237f565b60405180910390fd5b505050565b60606114608484600085611469565b90509392505050565b6060824710156114ae576040517f08c379a00000000000000000000000000000000000000000000000000000000081526004016114a590612411565b60405180910390fd5b6000808673ffffffffffffffffffffffffffffffffffffffff1685876040516114d791906124a2565b60006040518083038185875af1925050503d8060008114611514576040519150601f19603f3d011682016040523d82523d6000602084013e611519565b606091505b509150915061152a87838387611536565b92505050949350505050565b6060831561159857600083510361159057611550856115ab565b61158f576040517f08c379a000000000000000000000000000000000000000000000000000000000815260040161158690612505565b60405180910390fd5b5b8290506115a3565b6115a283836115ce565b5b949350505050565b6000808273ffffffffffffffffffffffffffffffffffffffff163b119050919050565b6000825111156115e15781518083602001fd5b806040517f08c379a0000000000000000000000000000000000000000000000000000000008152600401611615919061257a565b60405180910390fd5b600080fd5b600073ffffffffffffffffffffffffffffffffffffffff82169050919050565b600061164e82611623565b9050919050565b61165e81611643565b811461166957600080fd5b50565b60008135905061167b81611655565b92915050565b6000819050919050565b61169481611681565b811461169f57600080fd5b50565b6000813590506116b18161168b565b92915050565b600080604083850312156116ce576116cd61161e565b5b60006116dc8582860161166c565b92505060206116ed858286016116a2565b9150509250929050565b61170081611681565b82525050565b600060208201905061171b60008301846116f7565b92915050565b600080600080600080600080610100898b0312156117425761174161161e565b5b60006117508b828c016116a2565b98505060206117618b828c0161166c565b97505060406117728b828c016116a2565b96505060606117838b828c016116a2565b95505060806117948b828c016116a2565b94505060a06117a58b828c016116a2565b93505060c06117b68b828c016116a2565b92505060e06117c78b828c016116a2565b9150509295985092959890939650565b6000602082840312156117ed576117ec61161e565b5b60006117fb848285016116a2565b91505092915050565b6000806040838503121561181b5761181a61161e565b5b6000611829858286016116a2565b925050602061183a858286016116a2565b9150509250929050565b61184d81611643565b82525050565b60006020820190506118686000830184611844565b92915050565b600060e082019050611883600083018a611844565b61189060208301896116f7565b61189d60408301886116f7565b6118aa60608301876116f7565b6118b760808301866116f7565b6118c460a08301856116f7565b6118d160c08301846116f7565b98975050505050505050565b600060a0820190506118f260008301886116f7565b6118ff60208301876116f7565b61190c60408301866116f7565b61191960608301856116f7565b61192660808301846116f7565b9695505050505050565b600080600080600080600060e0888a03121561194f5761194e61161e565b5b600061195d8a828b0161166c565b975050602061196e8a828b016116a2565b965050604061197f8a828b016116a2565b95505060606119908a828b016116a2565b94505060806119a18a828b016116a2565b93505060a06119b28a828b016116a2565b92505060c06119c38a828b016116a2565b91505092959891949750929550565b6000602082840312156119e8576119e761161e565b5b60006119f68482850161166c565b91505092915050565b7f4e487b7100000000000000000000000000000000000000000000000000000000600052601160045260246000fd5b6000611a3982611681565b9150611a4483611681565b9250828203905081811115611a5c57611a5b6119ff565b5b92915050565b6000611a6d82611681565b9150611a7883611681565b9250828202611a8681611681565b91508282048414831517611a9d57611a9c6119ff565b5b5092915050565b7f4e487b7100000000000000000000000000000000000000000000000000000000600052601260045260246000fd5b6000611ade82611681565b9150611ae983611681565b925082611af957611af8611aa4565b5b828204905092915050565b600082825260208201905092915050565b7f496e76616c696420706f6f6c2049440000000000000000000000000000000000600082015250565b6000611b4b600f83611b04565b9150611b5682611b15565b602082019050919050565b60006020820190508181036000830152611b7a81611b3e565b9050919050565b7f496e76616c696420616464726573730000000000000000000000000000000000600082015250565b6000611bb7600f83611b04565b9150611bc282611b81565b602082019050919050565b60006020820190508181036000830152611be681611baa565b9050919050565b6000611bf882611681565b9150611c0383611681565b9250828201905080821115611c1b57611c1a6119ff565b5b92915050565b7f496e76616c69642074696d6520756e7374616b696e6700000000000000000000600082015250565b6000611c57601683611b04565b9150611c6282611c21565b602082019050919050565b60006020820190508181036000830152611c8681611c4a565b9050919050565b6000606082019050611ca26000830186611844565b611caf60208301856116f7565b611cbc60408301846116f7565b949350505050565b7f416d6f756e74206973206c657373207468616e206d696e696d756d207374616b60008201527f6520616d6f756e74000000000000000000000000000000000000000000000000602082015250565b6000611d20602883611b04565b9150611d2b82611cc4565b604082019050919050565b60006020820190508181036000830152611d4f81611d13565b9050919050565b7f416d6f756e742069732067726561746572207468616e206d6178696d756d207360008201527f74616b6520616d6f756e74000000000000000000000000000000000000000000602082015250565b6000611db2602b83611b04565b9150611dbd82611d56565b604082019050919050565b60006020820190508181036000830152611de181611da5565b9050919050565b7f45786365656473206d6178696d756d20706f6f6c20616d6f756e740000000000600082015250565b6000611e1e601b83611b04565b9150611e2982611de8565b602082019050919050565b60006020820190508181036000830152611e4d81611e11565b9050919050565b7f506f6f6c20646f6573206e6f7420657869737400000000000000000000000000600082015250565b6000611e8a601383611b04565b9150611e9582611e54565b602082019050919050565b60006020820190508181036000830152611eb981611e7d565b9050919050565b7f4e6f207374616b656420616d6f756e7400000000000000000000000000000000600082015250565b6000611ef6601083611b04565b9150611f0182611ec0565b602082019050919050565b60006020820190508181036000830152611f2581611ee9565b9050919050565b7f4e6f2072657761726420617661696c61626c6520666f7220776974686472617760008201527f616c000000000000000000000000000000000000000000000000000000000000602082015250565b6000611f88602283611b04565b9150611f9382611f2c565b604082019050919050565b60006020820190508181036000830152611fb781611f7b565b9050919050565b7f4e6f7420656e6f7567682074696d6520746f2077697468647261772031000000600082015250565b6000611ff4601d83611b04565b9150611fff82611fbe565b602082019050919050565b6000602082019050818103600083015261202381611fe7565b9050919050565b7f4e6f7420656e6f7567682074696d6520746f2077697468647261772032000000600082015250565b6000612060601d83611b04565b915061206b8261202a565b602082019050919050565b6000602082019050818103600083015261208f81612053565b9050919050565b7f496e76616c696420746f6b656e20616464726573730000000000000000000000600082015250565b60006120cc601583611b04565b91506120d782612096565b602082019050919050565b600060208201905081810360008301526120fb816120bf565b9050919050565b600061210d82611681565b91507fffffffffffffffffffffffffffffffffffffffffffffffffffffffffffffffff820361213f5761213e6119ff565b5b600182019050919050565b7f4f776e61626c653a206e6577206f776e657220697320746865207a65726f206160008201527f6464726573730000000000000000000000000000000000000000000000000000602082015250565b60006121a6602683611b04565b91506121b18261214a565b604082019050919050565b600060208201905081810360008301526121d581612199565b9050919050565b7f4f776e61626c653a2063616c6c6572206973206e6f7420746865206f776e6572600082015250565b6000612212602083611b04565b915061221d826121dc565b602082019050919050565b6000602082019050818103600083015261224181612205565b9050919050565b600060408201905061225d6000830185611844565b61226a60208301846116f7565b9392505050565b60006060820190506122866000830186611844565b6122936020830185611844565b6122a060408301846116f7565b949350505050565b60008115159050919050565b6122bd816122a8565b81146122c857600080fd5b50565b6000815190506122da816122b4565b92915050565b6000602082840312156122f6576122f561161e565b5b6000612304848285016122cb565b91505092915050565b7f5361666545524332303a204552433230206f7065726174696f6e20646964206e60008201527f6f74207375636365656400000000000000000000000000000000000000000000602082015250565b6000612369602a83611b04565b91506123748261230d565b604082019050919050565b600060208201905081810360008301526123988161235c565b9050919050565b7f416464726573733a20696e73756666696369656e742062616c616e636520666f60008201527f722063616c6c0000000000000000000000000000000000000000000000000000602082015250565b60006123fb602683611b04565b91506124068261239f565b604082019050919050565b6000602082019050818103600083015261242a816123ee565b9050919050565b600081519050919050565b600081905092915050565b60005b8381101561246557808201518184015260208101905061244a565b60008484015250505050565b600061247c82612431565b612486818561243c565b9350612496818560208601612447565b80840191505092915050565b60006124ae8284612471565b915081905092915050565b7f416464726573733a2063616c6c20746f206e6f6e2d636f6e7472616374000000600082015250565b60006124ef601d83611b04565b91506124fa826124b9565b602082019050919050565b6000602082019050818103600083015261251e816124e2565b9050919050565b600081519050919050565b6000601f19601f8301169050919050565b600061254c82612525565b6125568185611b04565b9350612566818560208601612447565b61256f81612530565b840191505092915050565b600060208201905081810360008301526125948184612541565b90509291505056fea26469706673582212202a0a1a4174f61e12110c4b7f9af24b499e10c83708bda7ed3ba783f9ac9e9fe664736f6c63430008130033",
  "linkReferences": {},
  "deployedLinkReferences": {}
}