{
  "_format": "hh-sol-artifact-1",
  "contractName": "Staking",
  "sourceName": "contracts/Staking.sol",
  "abi": [
    {
      "anonymous": false,
      "inputs": [
        {
          "indexed": true,
          "internalType": "address",
          "name": "previousOwner",
          "type": "address"
        },
        {
          "indexed": true,
          "internalType": "address",
          "name": "newOwner",
          "type": "address"
        }
      ],
      "name": "OwnershipTransferred",
      "type": "event"
    },
    {
      "anonymous": false,
      "inputs": [
        {
          "indexed": false,
          "internalType": "address",
          "name": "StakeAddress",
          "type": "address"
        },
        {
          "indexed": false,
          "internalType": "uint256",
          "name": "Amount",
          "type": "uint256"
        },
        {
          "indexed": false,
          "internalType": "uint256",
          "name": "PoolId",
          "type": "uint256"
        }
      ],
      "name": "Stake",
      "type": "event"
    },
    {
      "anonymous": false,
      "inputs": [
        {
          "indexed": false,
          "internalType": "address",
          "name": "UnStakeAddress",
          "type": "address"
        },
        {
          "indexed": false,
          "internalType": "uint256",
          "name": "Amount",
          "type": "uint256"
        },
        {
          "indexed": false,
          "internalType": "uint256",
          "name": "PoolId",
          "type": "uint256"
        }
      ],
      "name": "UnStake",
      "type": "event"
    },
    {
      "anonymous": false,
      "inputs": [
        {
          "indexed": false,
          "internalType": "address",
          "name": "WithdrawReward",
          "type": "address"
        },
        {
          "indexed": false,
          "internalType": "uint256",
          "name": "Reward",
          "type": "uint256"
        },
        {
          "indexed": false,
          "internalType": "uint256",
          "name": "PoolId",
          "type": "uint256"
        }
      ],
      "name": "WithdrawReward",
      "type": "event"
    },
    {
      "inputs": [
        {
          "internalType": "address",
          "name": "_tokenAddress",
          "type": "address"
        },
        {
          "internalType": "uint256",
          "name": "_lockDuration",
          "type": "uint256"
        },
        {
          "internalType": "uint256",
          "name": "_rewardDuration",
          "type": "uint256"
        },
        {
          "internalType": "uint256",
          "name": "_minStakeAmount",
          "type": "uint256"
        },
        {
          "internalType": "uint256",
          "name": "_maxStakeAmount",
          "type": "uint256"
        },
        {
          "internalType": "uint256",
          "name": "_maxPoolAmount",
          "type": "uint256"
        },
        {
          "internalType": "uint256",
          "name": "_percent",
          "type": "uint256"
        }
      ],
      "name": "addPool",
      "outputs": [],
      "stateMutability": "nonpayable",
      "type": "function"
    },
    {
      "inputs": [
        {
          "internalType": "uint256",
          "name": "",
          "type": "uint256"
        }
      ],
      "name": "amountMaxPool",
      "outputs": [
        {
          "internalType": "uint256",
          "name": "",
          "type": "uint256"
        }
      ],
      "stateMutability": "view",
      "type": "function"
    },
    {
      "inputs": [
        {
          "internalType": "address",
          "name": "_address",
          "type": "address"
        },
        {
          "internalType": "uint256",
          "name": "poolId",
          "type": "uint256"
        }
      ],
      "name": "calculateReward",
      "outputs": [
        {
          "internalType": "uint256",
          "name": "",
          "type": "uint256"
        }
      ],
      "stateMutability": "view",
      "type": "function"
    },
    {
      "inputs": [
        {
          "internalType": "uint256",
          "name": "poolId",
          "type": "uint256"
        }
      ],
      "name": "claimReward",
      "outputs": [],
      "stateMutability": "nonpayable",
      "type": "function"
    },
    {
      "inputs": [
        {
          "internalType": "uint256",
          "name": "poolId",
          "type": "uint256"
        }
      ],
      "name": "getRound",
      "outputs": [
        {
          "internalType": "address",
          "name": "tokenAddress",
          "type": "address"
        },
        {
          "internalType": "uint256",
          "name": "lockDuration",
          "type": "uint256"
        },
        {
          "internalType": "uint256",
          "name": "rewardDuration",
          "type": "uint256"
        },
        {
          "internalType": "uint256",
          "name": "minStakeAmount",
          "type": "uint256"
        },
        {
          "internalType": "uint256",
          "name": "maxStakeAmount",
          "type": "uint256"
        },
        {
          "internalType": "uint256",
          "name": "maxPoolAmount",
          "type": "uint256"
        },
        {
          "internalType": "uint256",
          "name": "percent",
          "type": "uint256"
        }
      ],
      "stateMutability": "view",
      "type": "function"
    },
    {
      "inputs": [],
      "name": "getTimePresent",
      "outputs": [
        {
          "internalType": "uint256",
          "name": "",
          "type": "uint256"
        }
      ],
      "stateMutability": "view",
      "type": "function"
    },
    {
      "inputs": [],
      "name": "owner",
      "outputs": [
        {
          "internalType": "address",
          "name": "",
          "type": "address"
        }
      ],
      "stateMutability": "view",
      "type": "function"
    },
    {
      "inputs": [
        {
          "internalType": "uint256",
          "name": "",
          "type": "uint256"
        }
      ],
      "name": "pools",
      "outputs": [
        {
          "internalType": "address",
          "name": "tokenAddress",
          "type": "address"
        },
        {
          "internalType": "uint256",
          "name": "lockDuration",
          "type": "uint256"
        },
        {
          "internalType": "uint256",
          "name": "rewardDuration",
          "type": "uint256"
        },
        {
          "internalType": "uint256",
          "name": "minStakeAmount",
          "type": "uint256"
        },
        {
          "internalType": "uint256",
          "name": "maxStakeAmount",
          "type": "uint256"
        },
        {
          "internalType": "uint256",
          "name": "maxPoolAmount",
          "type": "uint256"
        },
        {
          "internalType": "uint256",
          "name": "percent",
          "type": "uint256"
        }
      ],
      "stateMutability": "view",
      "type": "function"
    },
    {
      "inputs": [],
      "name": "renounceOwnership",
      "outputs": [],
      "stateMutability": "nonpayable",
      "type": "function"
    },
    {
      "inputs": [
        {
          "internalType": "uint256",
          "name": "poolId",
          "type": "uint256"
        },
        {
          "internalType": "uint256",
          "name": "amount",
          "type": "uint256"
        }
      ],
      "name": "stake",
      "outputs": [],
      "stateMutability": "nonpayable",
      "type": "function"
    },
    {
      "inputs": [],
      "name": "totalPools",
      "outputs": [
        {
          "internalType": "uint256",
          "name": "",
          "type": "uint256"
        }
      ],
      "stateMutability": "view",
      "type": "function"
    },
    {
      "inputs": [
        {
          "internalType": "address",
          "name": "newOwner",
          "type": "address"
        }
      ],
      "name": "transferOwnership",
      "outputs": [],
      "stateMutability": "nonpayable",
      "type": "function"
    },
    {
      "inputs": [
        {
          "internalType": "uint256",
          "name": "poolId",
          "type": "uint256"
        }
      ],
      "name": "unStake",
      "outputs": [],
      "stateMutability": "nonpayable",
      "type": "function"
    },
    {
      "inputs": [
        {
          "internalType": "uint256",
          "name": "poolId",
          "type": "uint256"
        },
        {
          "internalType": "address",
          "name": "_tokenAddress",
          "type": "address"
        },
        {
          "internalType": "uint256",
          "name": "_lockDuration",
          "type": "uint256"
        },
        {
          "internalType": "uint256",
          "name": "_rewardDuration",
          "type": "uint256"
        },
        {
          "internalType": "uint256",
          "name": "_minStakeAmount",
          "type": "uint256"
        },
        {
          "internalType": "uint256",
          "name": "_maxStakeAmount",
          "type": "uint256"
        },
        {
          "internalType": "uint256",
          "name": "_maxPoolAmount",
          "type": "uint256"
        },
        {
          "internalType": "uint256",
          "name": "_percent",
          "type": "uint256"
        }
      ],
      "name": "updatePool",
      "outputs": [],
      "stateMutability": "nonpayable",
      "type": "function"
    },
    {
      "inputs": [
        {
          "internalType": "address",
          "name": "",
          "type": "address"
        },
        {
          "internalType": "uint256",
          "name": "",
          "type": "uint256"
        }
      ],
      "name": "userStakes",
      "outputs": [
        {
          "internalType": "uint256",
          "name": "amountStaked",
          "type": "uint256"
        },
        {
          "internalType": "uint256",
          "name": "lastStakeTime",
          "type": "uint256"
        },
        {
          "internalType": "uint256",
          "name": "rewardEarned",
          "type": "uint256"
        },
        {
          "internalType": "uint256",
          "name": "lastRewardUpdateTime",
          "type": "uint256"
        },
        {
          "internalType": "uint256",
          "name": "lastRewardWithdrawTime",
          "type": "uint256"
        }
      ],
      "stateMutability": "view",
      "type": "function"
    }
  ],
  "bytecode": "0x608060405234801561001057600080fd5b5061002d61002261003260201b60201c565b61003a60201b60201c565b6100fe565b600033905090565b60008060009054906101000a900473ffffffffffffffffffffffffffffffffffffffff169050816000806101000a81548173ffffffffffffffffffffffffffffffffffffffff021916908373ffffffffffffffffffffffffffffffffffffffff1602179055508173ffffffffffffffffffffffffffffffffffffffff168173ffffffffffffffffffffffffffffffffffffffff167f8be0079c531659141344cd1fd0a4f28419497f9722a3daafe3b4186f6b6457e060405160405180910390a35050565b61211d806200010e6000396000f3fe608060405234801561001057600080fd5b50600436106100f55760003560e01c80638f1327c011610097578063ae169a5011610066578063ae169a501461027e578063b5d5b5fa1461029a578063cc73c66f146102ce578063f2fde38b146102ea576100f5565b80638f1327c0146101c457806394d126c5146101fa578063ab3c7e521461022a578063ac4afa3814610248576100f5565b8063715018a6116100d3578063715018a6146101625780637b0472f01461016c5780638c412b69146101885780638da5cb5b146101a6576100f5565b80631852e8d9146100fa578063207f037e1461012a5780635d3eea9114610146575b600080fd5b610114600480360381019061010f9190611491565b610306565b60405161012191906114e0565b60405180910390f35b610144600480360381019061013f91906114fb565b6103ba565b005b610160600480360381019061015b91906115b1565b610511565b005b61016a610743565b005b610186600480360381019061018191906115de565b610757565b005b610190610a3e565b60405161019d91906114e0565b60405180910390f35b6101ae610a46565b6040516101bb919061162d565b60405180910390f35b6101de60048036038101906101d991906115b1565b610a6f565b6040516101f19796959493929190611648565b60405180910390f35b610214600480360381019061020f91906115b1565b610bbb565b60405161022191906114e0565b60405180910390f35b610232610bd3565b60405161023f91906114e0565b60405180910390f35b610262600480360381019061025d91906115b1565b610bd9565b6040516102759796959493929190611648565b60405180910390f35b610298600480360381019061029391906115b1565b610c3b565b005b6102b460048036038101906102af9190611491565b610fe8565b6040516102c59594939291906116b7565b60405180910390f35b6102e860048036038101906102e3919061170a565b61102b565b005b61030460048036038101906102ff91906117ac565b61119f565b005b600080600360008573ffffffffffffffffffffffffffffffffffffffff1673ffffffffffffffffffffffffffffffffffffffff16815260200190815260200160002060008481526020019081526020016000209050600081600301544261036d9190611808565b9050640758f07a30826000015460026000878152602001908152602001600020600601548361039c919061183c565b6103a6919061183c565b6103b091906118ad565b9250505092915050565b6103c2611222565b600154881115610407576040517f08c379a00000000000000000000000000000000000000000000000000000000081526004016103fe9061193b565b60405180910390fd5b600073ffffffffffffffffffffffffffffffffffffffff168773ffffffffffffffffffffffffffffffffffffffff1603610476576040517f08c379a000000000000000000000000000000000000000000000000000000000815260040161046d906119a7565b60405180910390fd5b6000600260008a81526020019081526020016000209050878160000160006101000a81548173ffffffffffffffffffffffffffffffffffffffff021916908373ffffffffffffffffffffffffffffffffffffffff160217905550868160010181905550858160020181905550848160030181905550838160040181905550828160050181905550818160060181905550505050505050505050565b600154811115610556576040517f08c379a000000000000000000000000000000000000000000000000000000000815260040161054d9061193b565b60405180910390fd5b60003390506000600360008373ffffffffffffffffffffffffffffffffffffffff1673ffffffffffffffffffffffffffffffffffffffff168152602001908152602001600020600084815260200190815260200160002090506105b983836112a0565b600260008481526020019081526020016000206001015481600101546105df91906119c7565b421015610621576040517f08c379a000000000000000000000000000000000000000000000000000000000815260040161061890611a47565b60405180910390fd5b60008160020154826000015461063791906119c7565b905060008260020181905550600082600001819055506002600085815260200190815260200160002060000160009054906101000a900473ffffffffffffffffffffffffffffffffffffffff1673ffffffffffffffffffffffffffffffffffffffff1663a9059cbb84836040518363ffffffff1660e01b81526004016106be929190611a67565b6020604051808303816000875af11580156106dd573d6000803e3d6000fd5b505050506040513d601f19601f820116820180604052508101906107019190611ac8565b507f54a9763035584fc4fcad1bc4e0e7a83f93e016f50ae32bd527530a77257393ee83828660405161073593929190611af5565b60405180910390a150505050565b61074b611222565b610755600061132c565b565b60003390506001548311156107a1576040517f08c379a00000000000000000000000000000000000000000000000000000000081526004016107989061193b565b60405180910390fd5b60006002600085815260200190815260200160002090506000600360008473ffffffffffffffffffffffffffffffffffffffff1673ffffffffffffffffffffffffffffffffffffffff168152602001908152602001600020600086815260200190815260200160002090508160030154841015610853576040517f08c379a000000000000000000000000000000000000000000000000000000000815260040161084a90611b9e565b60405180910390fd5b816004015484111561089a576040517f08c379a000000000000000000000000000000000000000000000000000000000815260040161089190611c30565b60405180910390fd5b81600501546004600087815260200190815260200160002054856108be91906119c7565b11156108ff576040517f08c379a00000000000000000000000000000000000000000000000000000000081526004016108f690611c9c565b60405180910390fd5b61090985846112a0565b8381600001600082825461091d91906119c7565b925050819055508360046000878152602001908152602001600020600082825461094791906119c7565b925050819055504281600101819055508160000160009054906101000a900473ffffffffffffffffffffffffffffffffffffffff1673ffffffffffffffffffffffffffffffffffffffff166323b872dd8430876040518463ffffffff1660e01b81526004016109b893929190611cbc565b6020604051808303816000875af11580156109d7573d6000803e3d6000fd5b505050506040513d601f19601f820116820180604052508101906109fb9190611ac8565b507f5af417134f72a9d41143ace85b0a26dce6f550f894f2cbc1eeee8810603d91b6838686604051610a2f93929190611af5565b60405180910390a15050505050565b600042905090565b60008060009054906101000a900473ffffffffffffffffffffffffffffffffffffffff16905090565b60008060008060008060008088118015610a8b57506001548811155b610aca576040517f08c379a0000000000000000000000000000000000000000000000000000000008152600401610ac190611d3f565b60405180910390fd5b6000600260008a81526020019081526020016000206040518060e00160405290816000820160009054906101000a900473ffffffffffffffffffffffffffffffffffffffff1673ffffffffffffffffffffffffffffffffffffffff1673ffffffffffffffffffffffffffffffffffffffff16815260200160018201548152602001600282015481526020016003820154815260200160048201548152602001600582015481526020016006820154815250509050806000015181602001518260400151836060015184608001518560a001518660c00151975097509750975097509750975050919395979092949650565b60046020528060005260406000206000915090505481565b60015481565b60026020528060005260406000206000915090508060000160009054906101000a900473ffffffffffffffffffffffffffffffffffffffff16908060010154908060020154908060030154908060040154908060050154908060060154905087565b60003390506000600360008373ffffffffffffffffffffffffffffffffffffffff1673ffffffffffffffffffffffffffffffffffffffff16815260200190815260200160002060008481526020019081526020016000209050610c9e83836112a0565b6000816000015411610ce5576040517f08c379a0000000000000000000000000000000000000000000000000000000008152600401610cdc90611dab565b60405180910390fd5b6000816002015411610d2c576040517f08c379a0000000000000000000000000000000000000000000000000000000008152600401610d2390611e3d565b60405180910390fd5b6000816002015490506000826004015403610e765760026000858152602001908152602001600020600201548260010154610d6791906119c7565b421015610da9576040517f08c379a0000000000000000000000000000000000000000000000000000000008152600401610da090611ea9565b60405180910390fd5b600082600201819055506002600085815260200190815260200160002060000160009054906101000a900473ffffffffffffffffffffffffffffffffffffffff1673ffffffffffffffffffffffffffffffffffffffff1663a9059cbb84836040518363ffffffff1660e01b8152600401610e24929190611a67565b6020604051808303816000875af1158015610e43573d6000803e3d6000fd5b505050506040513d601f19601f82011682018060405250810190610e679190611ac8565b50428260040181905550610fa7565b60026000858152602001908152602001600020600201548260040154610e9c91906119c7565b421015610ede576040517f08c379a0000000000000000000000000000000000000000000000000000000008152600401610ed590611f15565b60405180910390fd5b600082600201819055506002600085815260200190815260200160002060000160009054906101000a900473ffffffffffffffffffffffffffffffffffffffff1673ffffffffffffffffffffffffffffffffffffffff1663a9059cbb84836040518363ffffffff1660e01b8152600401610f59929190611a67565b6020604051808303816000875af1158015610f78573d6000803e3d6000fd5b505050506040513d601f19601f82011682018060405250810190610f9c9190611ac8565b504282600401819055505b7f48f1e4b8fb0469595617480e6784e40ab6b8c49209761b8e09305bf7b73e53de838286604051610fda93929190611af5565b60405180910390a150505050565b6003602052816000526040600020602052806000526040600020600091509150508060000154908060010154908060020154908060030154908060040154905085565b600073ffffffffffffffffffffffffffffffffffffffff168773ffffffffffffffffffffffffffffffffffffffff160361109a576040517f08c379a000000000000000000000000000000000000000000000000000000000815260040161109190611f81565b60405180910390fd5b600160008154809291906110ad90611fa1565b91905055506040518060e001604052808873ffffffffffffffffffffffffffffffffffffffff1681526020018781526020018681526020018581526020018481526020018381526020018281525060026000600154815260200190815260200160002060008201518160000160006101000a81548173ffffffffffffffffffffffffffffffffffffffff021916908373ffffffffffffffffffffffffffffffffffffffff1602179055506020820151816001015560408201518160020155606082015181600301556080820151816004015560a0820151816005015560c0820151816006015590505050505050505050565b6111a7611222565b600073ffffffffffffffffffffffffffffffffffffffff168173ffffffffffffffffffffffffffffffffffffffff1603611216576040517f08c379a000000000000000000000000000000000000000000000000000000000815260040161120d9061205b565b60405180910390fd5b61121f8161132c565b50565b61122a6113f0565b73ffffffffffffffffffffffffffffffffffffffff16611248610a46565b73ffffffffffffffffffffffffffffffffffffffff161461129e576040517f08c379a0000000000000000000000000000000000000000000000000000000008152600401611295906120c7565b60405180910390fd5b565b6000600360008373ffffffffffffffffffffffffffffffffffffffff1673ffffffffffffffffffffffffffffffffffffffff1681526020019081526020016000206000848152602001908152602001600020905060006113003385610306565b90508082600201600082825461131691906119c7565b9250508190555042826003018190555050505050565b60008060009054906101000a900473ffffffffffffffffffffffffffffffffffffffff169050816000806101000a81548173ffffffffffffffffffffffffffffffffffffffff021916908373ffffffffffffffffffffffffffffffffffffffff1602179055508173ffffffffffffffffffffffffffffffffffffffff168173ffffffffffffffffffffffffffffffffffffffff167f8be0079c531659141344cd1fd0a4f28419497f9722a3daafe3b4186f6b6457e060405160405180910390a35050565b600033905090565b600080fd5b600073ffffffffffffffffffffffffffffffffffffffff82169050919050565b6000611428826113fd565b9050919050565b6114388161141d565b811461144357600080fd5b50565b6000813590506114558161142f565b92915050565b6000819050919050565b61146e8161145b565b811461147957600080fd5b50565b60008135905061148b81611465565b92915050565b600080604083850312156114a8576114a76113f8565b5b60006114b685828601611446565b92505060206114c78582860161147c565b9150509250929050565b6114da8161145b565b82525050565b60006020820190506114f560008301846114d1565b92915050565b600080600080600080600080610100898b03121561151c5761151b6113f8565b5b600061152a8b828c0161147c565b985050602061153b8b828c01611446565b975050604061154c8b828c0161147c565b965050606061155d8b828c0161147c565b955050608061156e8b828c0161147c565b94505060a061157f8b828c0161147c565b93505060c06115908b828c0161147c565b92505060e06115a18b828c0161147c565b9150509295985092959890939650565b6000602082840312156115c7576115c66113f8565b5b60006115d58482850161147c565b91505092915050565b600080604083850312156115f5576115f46113f8565b5b60006116038582860161147c565b92505060206116148582860161147c565b9150509250929050565b6116278161141d565b82525050565b6000602082019050611642600083018461161e565b92915050565b600060e08201905061165d600083018a61161e565b61166a60208301896114d1565b61167760408301886114d1565b61168460608301876114d1565b61169160808301866114d1565b61169e60a08301856114d1565b6116ab60c08301846114d1565b98975050505050505050565b600060a0820190506116cc60008301886114d1565b6116d960208301876114d1565b6116e660408301866114d1565b6116f360608301856114d1565b61170060808301846114d1565b9695505050505050565b600080600080600080600060e0888a031215611729576117286113f8565b5b60006117378a828b01611446565b97505060206117488a828b0161147c565b96505060406117598a828b0161147c565b955050606061176a8a828b0161147c565b945050608061177b8a828b0161147c565b93505060a061178c8a828b0161147c565b92505060c061179d8a828b0161147c565b91505092959891949750929550565b6000602082840312156117c2576117c16113f8565b5b60006117d084828501611446565b91505092915050565b7f4e487b7100000000000000000000000000000000000000000000000000000000600052601160045260246000fd5b60006118138261145b565b915061181e8361145b565b9250828203905081811115611836576118356117d9565b5b92915050565b60006118478261145b565b91506118528361145b565b92508282026118608161145b565b91508282048414831517611877576118766117d9565b5b5092915050565b7f4e487b7100000000000000000000000000000000000000000000000000000000600052601260045260246000fd5b60006118b88261145b565b91506118c38361145b565b9250826118d3576118d261187e565b5b828204905092915050565b600082825260208201905092915050565b7f496e76616c696420706f6f6c2049440000000000000000000000000000000000600082015250565b6000611925600f836118de565b9150611930826118ef565b602082019050919050565b6000602082019050818103600083015261195481611918565b9050919050565b7f496e76616c696420616464726573730000000000000000000000000000000000600082015250565b6000611991600f836118de565b915061199c8261195b565b602082019050919050565b600060208201905081810360008301526119c081611984565b9050919050565b60006119d28261145b565b91506119dd8361145b565b92508282019050808211156119f5576119f46117d9565b5b92915050565b7f496e76616c69642074696d6520756e7374616b696e6700000000000000000000600082015250565b6000611a316016836118de565b9150611a3c826119fb565b602082019050919050565b60006020820190508181036000830152611a6081611a24565b9050919050565b6000604082019050611a7c600083018561161e565b611a8960208301846114d1565b9392505050565b60008115159050919050565b611aa581611a90565b8114611ab057600080fd5b50565b600081519050611ac281611a9c565b92915050565b600060208284031215611ade57611add6113f8565b5b6000611aec84828501611ab3565b91505092915050565b6000606082019050611b0a600083018661161e565b611b1760208301856114d1565b611b2460408301846114d1565b949350505050565b7f416d6f756e74206973206c657373207468616e206d696e696d756d207374616b60008201527f6520616d6f756e74000000000000000000000000000000000000000000000000602082015250565b6000611b886028836118de565b9150611b9382611b2c565b604082019050919050565b60006020820190508181036000830152611bb781611b7b565b9050919050565b7f416d6f756e742069732067726561746572207468616e206d6178696d756d207360008201527f74616b6520616d6f756e74000000000000000000000000000000000000000000602082015250565b6000611c1a602b836118de565b9150611c2582611bbe565b604082019050919050565b60006020820190508181036000830152611c4981611c0d565b9050919050565b7f45786365656473206d6178696d756d20706f6f6c20616d6f756e740000000000600082015250565b6000611c86601b836118de565b9150611c9182611c50565b602082019050919050565b60006020820190508181036000830152611cb581611c79565b9050919050565b6000606082019050611cd1600083018661161e565b611cde602083018561161e565b611ceb60408301846114d1565b949350505050565b7f506f6f6c20646f6573206e6f7420657869737400000000000000000000000000600082015250565b6000611d296013836118de565b9150611d3482611cf3565b602082019050919050565b60006020820190508181036000830152611d5881611d1c565b9050919050565b7f4e6f207374616b656420616d6f756e7400000000000000000000000000000000600082015250565b6000611d956010836118de565b9150611da082611d5f565b602082019050919050565b60006020820190508181036000830152611dc481611d88565b9050919050565b7f4e6f2072657761726420617661696c61626c6520666f7220776974686472617760008201527f616c000000000000000000000000000000000000000000000000000000000000602082015250565b6000611e276022836118de565b9150611e3282611dcb565b604082019050919050565b60006020820190508181036000830152611e5681611e1a565b9050919050565b7f4e6f7420656e6f7567682074696d6520746f2077697468647261772031000000600082015250565b6000611e93601d836118de565b9150611e9e82611e5d565b602082019050919050565b60006020820190508181036000830152611ec281611e86565b9050919050565b7f4e6f7420656e6f7567682074696d6520746f2077697468647261772032000000600082015250565b6000611eff601d836118de565b9150611f0a82611ec9565b602082019050919050565b60006020820190508181036000830152611f2e81611ef2565b9050919050565b7f496e76616c696420746f6b656e20616464726573730000000000000000000000600082015250565b6000611f6b6015836118de565b9150611f7682611f35565b602082019050919050565b60006020820190508181036000830152611f9a81611f5e565b9050919050565b6000611fac8261145b565b91507fffffffffffffffffffffffffffffffffffffffffffffffffffffffffffffffff8203611fde57611fdd6117d9565b5b600182019050919050565b7f4f776e61626c653a206e6577206f776e657220697320746865207a65726f206160008201527f6464726573730000000000000000000000000000000000000000000000000000602082015250565b60006120456026836118de565b915061205082611fe9565b604082019050919050565b6000602082019050818103600083015261207481612038565b9050919050565b7f4f776e61626c653a2063616c6c6572206973206e6f7420746865206f776e6572600082015250565b60006120b16020836118de565b91506120bc8261207b565b602082019050919050565b600060208201905081810360008301526120e0816120a4565b905091905056fea26469706673582212200b7403a009cba162531a4f3a85f143fd89b55129a5bcd352ca12ed35bbebf22b64736f6c63430008130033",
  "linkReferences": {},
  "deployedLinkReferences": {}
}